{
  "_format": "hh-sol-artifact-1",
  "contractName": "DecentraFile",
  "sourceName": "contracts/DecentraFile.sol",
  "abi": [
    {
      "inputs": [],
      "stateMutability": "nonpayable",
      "type": "constructor"
    },
    {
      "inputs": [
        {
          "internalType": "address",
          "name": "owner",
          "type": "address"
        }
      ],
      "name": "OwnableInvalidOwner",
      "type": "error"
    },
    {
      "inputs": [
        {
          "internalType": "address",
          "name": "account",
          "type": "address"
        }
      ],
      "name": "OwnableUnauthorizedAccount",
      "type": "error"
    },
    {
      "anonymous": false,
      "inputs": [
        {
          "indexed": true,
          "internalType": "uint256",
          "name": "fileId",
          "type": "uint256"
        },
        {
          "indexed": false,
          "internalType": "string",
          "name": "cid",
          "type": "string"
        },
        {
          "indexed": false,
          "internalType": "address",
          "name": "uploader",
          "type": "address"
        },
        {
          "indexed": false,
          "internalType": "string",
          "name": "name",
          "type": "string"
        },
        {
          "indexed": false,
          "internalType": "string",
          "name": "category",
          "type": "string"
        },
        {
          "indexed": false,
          "internalType": "string[]",
          "name": "tags",
          "type": "string[]"
        }
      ],
      "name": "FileUploaded",
      "type": "event"
    },
    {
      "anonymous": false,
      "inputs": [
        {
          "indexed": true,
          "internalType": "address",
          "name": "previousOwner",
          "type": "address"
        },
        {
          "indexed": true,
          "internalType": "address",
          "name": "newOwner",
          "type": "address"
        }
      ],
      "name": "OwnershipTransferred",
      "type": "event"
    },
    {
      "anonymous": false,
      "inputs": [
        {
          "indexed": true,
          "internalType": "uint256",
          "name": "fileId",
          "type": "uint256"
        },
        {
          "indexed": false,
          "internalType": "string[]",
          "name": "newTags",
          "type": "string[]"
        }
      ],
      "name": "TagsUpdated",
      "type": "event"
    },
    {
      "inputs": [
        {
          "internalType": "uint256",
          "name": "_fileId",
          "type": "uint256"
        }
      ],
      "name": "deleteFile",
      "outputs": [],
      "stateMutability": "nonpayable",
      "type": "function"
    },
    {
      "inputs": [],
      "name": "fileCount",
      "outputs": [
        {
          "internalType": "uint256",
          "name": "",
          "type": "uint256"
        }
      ],
      "stateMutability": "view",
      "type": "function"
    },
    {
      "inputs": [
        {
          "internalType": "uint256",
          "name": "",
          "type": "uint256"
        }
      ],
      "name": "files",
      "outputs": [
        {
          "internalType": "string",
          "name": "cid",
          "type": "string"
        },
        {
          "internalType": "address",
          "name": "uploader",
          "type": "address"
        },
        {
          "internalType": "string",
          "name": "name",
          "type": "string"
        },
        {
          "internalType": "string",
          "name": "description",
          "type": "string"
        },
        {
          "internalType": "string",
          "name": "category",
          "type": "string"
        },
        {
          "internalType": "uint256",
          "name": "timestamp",
          "type": "uint256"
        }
      ],
      "stateMutability": "view",
      "type": "function"
    },
    {
      "inputs": [
        {
          "internalType": "uint256",
          "name": "_fileId",
          "type": "uint256"
        }
      ],
      "name": "getFile",
      "outputs": [
        {
          "components": [
            {
              "internalType": "string",
              "name": "cid",
              "type": "string"
            },
            {
              "internalType": "address",
              "name": "uploader",
              "type": "address"
            },
            {
              "internalType": "string",
              "name": "name",
              "type": "string"
            },
            {
              "internalType": "string",
              "name": "description",
              "type": "string"
            },
            {
              "internalType": "string",
              "name": "category",
              "type": "string"
            },
            {
              "internalType": "string[]",
              "name": "tags",
              "type": "string[]"
            },
            {
              "internalType": "uint256",
              "name": "timestamp",
              "type": "uint256"
            }
          ],
          "internalType": "struct DecentraFile.File",
          "name": "",
          "type": "tuple"
        }
      ],
      "stateMutability": "view",
      "type": "function"
    },
    {
      "inputs": [],
      "name": "getFileCount",
      "outputs": [
        {
          "internalType": "uint256",
          "name": "",
          "type": "uint256"
        }
      ],
      "stateMutability": "view",
      "type": "function"
    },
    {
      "inputs": [],
      "name": "owner",
      "outputs": [
        {
          "internalType": "address",
          "name": "",
          "type": "address"
        }
      ],
      "stateMutability": "view",
      "type": "function"
    },
    {
      "inputs": [],
      "name": "renounceOwnership",
      "outputs": [],
      "stateMutability": "nonpayable",
      "type": "function"
    },
    {
      "inputs": [
        {
          "internalType": "address",
          "name": "newOwner",
          "type": "address"
        }
      ],
      "name": "transferOwnership",
      "outputs": [],
      "stateMutability": "nonpayable",
      "type": "function"
    },
    {
      "inputs": [
        {
          "internalType": "uint256",
          "name": "_fileId",
          "type": "uint256"
        },
        {
          "internalType": "string",
          "name": "_name",
          "type": "string"
        },
        {
          "internalType": "string",
          "name": "_description",
          "type": "string"
        },
        {
          "internalType": "string",
          "name": "_category",
          "type": "string"
        }
      ],
      "name": "updateFileMetadata",
      "outputs": [],
      "stateMutability": "nonpayable",
      "type": "function"
    },
    {
      "inputs": [
        {
          "internalType": "uint256",
          "name": "_fileId",
          "type": "uint256"
        },
        {
          "internalType": "string[]",
          "name": "_newTags",
          "type": "string[]"
        }
      ],
      "name": "updateTags",
      "outputs": [],
      "stateMutability": "nonpayable",
      "type": "function"
    },
    {
      "inputs": [
        {
          "internalType": "string",
          "name": "_cid",
          "type": "string"
        },
        {
          "internalType": "string",
          "name": "_name",
          "type": "string"
        },
        {
          "internalType": "string",
          "name": "_description",
          "type": "string"
        },
        {
          "internalType": "string",
          "name": "_category",
          "type": "string"
        },
        {
          "internalType": "string[]",
          "name": "_tags",
          "type": "string[]"
        }
      ],
      "name": "uploadFile",
      "outputs": [],
      "stateMutability": "nonpayable",
      "type": "function"
    }
  ],
  "bytecode": "0x608060405234801561001057600080fd5b5033600073ffffffffffffffffffffffffffffffffffffffff168173ffffffffffffffffffffffffffffffffffffffff16036100845760006040517f1e4fbdf700000000000000000000000000000000000000000000000000000000815260040161007b919061019e565b60405180910390fd5b6100938161009960201b60201c565b506101b9565b60008060009054906101000a900473ffffffffffffffffffffffffffffffffffffffff169050816000806101000a81548173ffffffffffffffffffffffffffffffffffffffff021916908373ffffffffffffffffffffffffffffffffffffffff1602179055508173ffffffffffffffffffffffffffffffffffffffff168173ffffffffffffffffffffffffffffffffffffffff167f8be0079c531659141344cd1fd0a4f28419497f9722a3daafe3b4186f6b6457e060405160405180910390a35050565b600073ffffffffffffffffffffffffffffffffffffffff82169050919050565b60006101888261015d565b9050919050565b6101988161017d565b82525050565b60006020820190506101b3600083018461018f565b92915050565b6122ad806101c86000396000f3fe608060405234801561001057600080fd5b50600436106100a95760003560e01c80639fdf4535116100715780639fdf453514610140578063a7c81a011461015c578063bab50cc914610178578063c5b4200614610196578063f2fde38b146101b2578063f4c714b4146101ce576100a9565b80632bfda313146100ae57806343953519146100de578063715018a6146100fc578063757ce442146101065780638da5cb5b14610122575b600080fd5b6100c860048036038101906100c391906112bb565b610203565b6040516100d59190611542565b60405180910390f35b6100e6610602565b6040516100f39190611573565b60405180910390f35b610104610608565b005b610120600480360381019061011b91906117a9565b61061c565b005b61012a61082c565b60405161013791906118bf565b60405180910390f35b61015a600480360381019061015591906118da565b610855565b005b61017660048036038101906101719190611995565b61099e565b005b610180610afa565b60405161018d9190611573565b60405180910390f35b6101b060048036038101906101ab91906112bb565b610b04565b005b6101cc60048036038101906101c79190611a1d565b610cce565b005b6101e860048036038101906101e391906112bb565b610d54565b6040516101fa96959493929190611a94565b60405180910390f35b61020b611123565b60008211801561021d57506002548211155b61025c576040517f08c379a000000000000000000000000000000000000000000000000000000000815260040161025390611b5d565b60405180910390fd5b600160008381526020019081526020016000206040518060e001604052908160008201805461028a90611bac565b80601f01602080910402602001604051908101604052809291908181526020018280546102b690611bac565b80156103035780601f106102d857610100808354040283529160200191610303565b820191906000526020600020905b8154815290600101906020018083116102e657829003601f168201915b505050505081526020016001820160009054906101000a900473ffffffffffffffffffffffffffffffffffffffff1673ffffffffffffffffffffffffffffffffffffffff1673ffffffffffffffffffffffffffffffffffffffff16815260200160028201805461037290611bac565b80601f016020809104026020016040519081016040528092919081815260200182805461039e90611bac565b80156103eb5780601f106103c0576101008083540402835291602001916103eb565b820191906000526020600020905b8154815290600101906020018083116103ce57829003601f168201915b5050505050815260200160038201805461040490611bac565b80601f016020809104026020016040519081016040528092919081815260200182805461043090611bac565b801561047d5780601f106104525761010080835404028352916020019161047d565b820191906000526020600020905b81548152906001019060200180831161046057829003601f168201915b5050505050815260200160048201805461049690611bac565b80601f01602080910402602001604051908101604052809291908181526020018280546104c290611bac565b801561050f5780601f106104e45761010080835404028352916020019161050f565b820191906000526020600020905b8154815290600101906020018083116104f257829003601f168201915b5050505050815260200160058201805480602002602001604051908101604052809291908181526020016000905b828210156105e957838290600052602060002001805461055c90611bac565b80601f016020809104026020016040519081016040528092919081815260200182805461058890611bac565b80156105d55780601f106105aa576101008083540402835291602001916105d5565b820191906000526020600020905b8154815290600101906020018083116105b857829003601f168201915b50505050508152602001906001019061053d565b5050505081526020016006820154815250509050919050565b60025481565b610610610fd0565b61061a6000611057565b565b6000855111610660576040517f08c379a000000000000000000000000000000000000000000000000000000000815260040161065790611c29565b60405180910390fd5b60008451116106a4576040517f08c379a000000000000000000000000000000000000000000000000000000000815260040161069b90611c95565b60405180910390fd5b600260008154809291906106b790611ce4565b91905055506040518060e001604052808681526020013373ffffffffffffffffffffffffffffffffffffffff16815260200185815260200184815260200183815260200182815260200142815250600160006002548152602001908152602001600020600082015181600001908161072f9190611ed8565b5060208201518160010160006101000a81548173ffffffffffffffffffffffffffffffffffffffff021916908373ffffffffffffffffffffffffffffffffffffffff160217905550604082015181600201908161078c9190611ed8565b5060608201518160030190816107a29190611ed8565b5060808201518160040190816107b89190611ed8565b5060a08201518160050190805190602001906107d5929190611176565b5060c082015181600601559050506002547f181c03d6197678a011f7b0c9eb173652ece5542253b6b70ecd66c6b2605d2be0863387868660405161081d959493929190612030565b60405180910390a25050505050565b60008060009054906101000a900473ffffffffffffffffffffffffffffffffffffffff16905090565b60008411801561086757506002548411155b6108a6576040517f08c379a000000000000000000000000000000000000000000000000000000000815260040161089d90611b5d565b60405180910390fd5b6001600085815260200190815260200160002060010160009054906101000a900473ffffffffffffffffffffffffffffffffffffffff1673ffffffffffffffffffffffffffffffffffffffff163373ffffffffffffffffffffffffffffffffffffffff161461094a576040517f08c379a000000000000000000000000000000000000000000000000000000000815260040161094190612111565b60405180910390fd5b6000600160008681526020019081526020016000209050838160020190816109729190611ed8565b50828160030190816109849190611ed8565b50818160040190816109969190611ed8565b505050505050565b6000821180156109b057506002548211155b6109ef576040517f08c379a00000000000000000000000000000000000000000000000000000000081526004016109e690611b5d565b60405180910390fd5b6001600083815260200190815260200160002060010160009054906101000a900473ffffffffffffffffffffffffffffffffffffffff1673ffffffffffffffffffffffffffffffffffffffff163373ffffffffffffffffffffffffffffffffffffffff1614610a93576040517f08c379a0000000000000000000000000000000000000000000000000000000008152600401610a8a906121a3565b60405180910390fd5b80600160008481526020019081526020016000206005019080519060200190610abd929190611176565b50817f1ec4c1ffa8337f540f543c894b49ff569d0f0e1f6f0401b1d853712087c9d4c582604051610aee91906121c3565b60405180910390a25050565b6000600254905090565b600081118015610b1657506002548111155b610b55576040517f08c379a0000000000000000000000000000000000000000000000000000000008152600401610b4c90611b5d565b60405180910390fd5b6001600082815260200190815260200160002060010160009054906101000a900473ffffffffffffffffffffffffffffffffffffffff1673ffffffffffffffffffffffffffffffffffffffff163373ffffffffffffffffffffffffffffffffffffffff161480610bf75750610bc861082c565b73ffffffffffffffffffffffffffffffffffffffff163373ffffffffffffffffffffffffffffffffffffffff16145b610c36576040517f08c379a0000000000000000000000000000000000000000000000000000000008152600401610c2d90612257565b60405180910390fd5b6001600082815260200190815260200160002060008082016000610c5a91906111cf565b6001820160006101000a81549073ffffffffffffffffffffffffffffffffffffffff0219169055600282016000610c9191906111cf565b600382016000610ca191906111cf565b600482016000610cb191906111cf565b600582016000610cc1919061120f565b6006820160009055505050565b610cd6610fd0565b600073ffffffffffffffffffffffffffffffffffffffff168173ffffffffffffffffffffffffffffffffffffffff1603610d485760006040517f1e4fbdf7000000000000000000000000000000000000000000000000000000008152600401610d3f91906118bf565b60405180910390fd5b610d5181611057565b50565b6001602052806000526040600020600091509050806000018054610d7790611bac565b80601f0160208091040260200160405190810160405280929190818152602001828054610da390611bac565b8015610df05780601f10610dc557610100808354040283529160200191610df0565b820191906000526020600020905b815481529060010190602001808311610dd357829003601f168201915b5050505050908060010160009054906101000a900473ffffffffffffffffffffffffffffffffffffffff1690806002018054610e2b90611bac565b80601f0160208091040260200160405190810160405280929190818152602001828054610e5790611bac565b8015610ea45780601f10610e7957610100808354040283529160200191610ea4565b820191906000526020600020905b815481529060010190602001808311610e8757829003601f168201915b505050505090806003018054610eb990611bac565b80601f0160208091040260200160405190810160405280929190818152602001828054610ee590611bac565b8015610f325780601f10610f0757610100808354040283529160200191610f32565b820191906000526020600020905b815481529060010190602001808311610f1557829003601f168201915b505050505090806004018054610f4790611bac565b80601f0160208091040260200160405190810160405280929190818152602001828054610f7390611bac565b8015610fc05780601f10610f9557610100808354040283529160200191610fc0565b820191906000526020600020905b815481529060010190602001808311610fa357829003601f168201915b5050505050908060060154905086565b610fd861111b565b73ffffffffffffffffffffffffffffffffffffffff16610ff661082c565b73ffffffffffffffffffffffffffffffffffffffff16146110555761101961111b565b6040517f118cdaa700000000000000000000000000000000000000000000000000000000815260040161104c91906118bf565b60405180910390fd5b565b60008060009054906101000a900473ffffffffffffffffffffffffffffffffffffffff169050816000806101000a81548173ffffffffffffffffffffffffffffffffffffffff021916908373ffffffffffffffffffffffffffffffffffffffff1602179055508173ffffffffffffffffffffffffffffffffffffffff168173ffffffffffffffffffffffffffffffffffffffff167f8be0079c531659141344cd1fd0a4f28419497f9722a3daafe3b4186f6b6457e060405160405180910390a35050565b600033905090565b6040518060e0016040528060608152602001600073ffffffffffffffffffffffffffffffffffffffff16815260200160608152602001606081526020016060815260200160608152602001600081525090565b8280548282559060005260206000209081019282156111be579160200282015b828111156111bd5782518290816111ad9190611ed8565b5091602001919060010190611196565b5b5090506111cb9190611230565b5090565b5080546111db90611bac565b6000825580601f106111ed575061120c565b601f01602090049060005260206000209081019061120b9190611254565b5b50565b508054600082559060005260206000209081019061122d9190611230565b50565b5b80821115611250576000818161124791906111cf565b50600101611231565b5090565b5b8082111561126d576000816000905550600101611255565b5090565b6000604051905090565b600080fd5b600080fd5b6000819050919050565b61129881611285565b81146112a357600080fd5b50565b6000813590506112b58161128f565b92915050565b6000602082840312156112d1576112d061127b565b5b60006112df848285016112a6565b91505092915050565b600081519050919050565b600082825260208201905092915050565b60005b83811015611322578082015181840152602081019050611307565b60008484015250505050565b6000601f19601f8301169050919050565b600061134a826112e8565b61135481856112f3565b9350611364818560208601611304565b61136d8161132e565b840191505092915050565b600073ffffffffffffffffffffffffffffffffffffffff82169050919050565b60006113a382611378565b9050919050565b6113b381611398565b82525050565b600081519050919050565b600082825260208201905092915050565b6000819050602082019050919050565b60006113f1838361133f565b905092915050565b6000602082019050919050565b6000611411826113b9565b61141b81856113c4565b93508360208202850161142d856113d5565b8060005b85811015611469578484038952815161144a85826113e5565b9450611455836113f9565b925060208a01995050600181019050611431565b50829750879550505050505092915050565b61148481611285565b82525050565b600060e08301600083015184820360008601526114a7828261133f565b91505060208301516114bc60208601826113aa565b50604083015184820360408601526114d4828261133f565b915050606083015184820360608601526114ee828261133f565b91505060808301518482036080860152611508828261133f565b91505060a083015184820360a08601526115228282611406565b91505060c083015161153760c086018261147b565b508091505092915050565b6000602082019050818103600083015261155c818461148a565b905092915050565b61156d81611285565b82525050565b60006020820190506115886000830184611564565b92915050565b600080fd5b600080fd5b7f4e487b7100000000000000000000000000000000000000000000000000000000600052604160045260246000fd5b6115d08261132e565b810181811067ffffffffffffffff821117156115ef576115ee611598565b5b80604052505050565b6000611602611271565b905061160e82826115c7565b919050565b600067ffffffffffffffff82111561162e5761162d611598565b5b6116378261132e565b9050602081019050919050565b82818337600083830152505050565b600061166661166184611613565b6115f8565b90508281526020810184848401111561168257611681611593565b5b61168d848285611644565b509392505050565b600082601f8301126116aa576116a961158e565b5b81356116ba848260208601611653565b91505092915050565b600067ffffffffffffffff8211156116de576116dd611598565b5b602082029050602081019050919050565b600080fd5b6000611707611702846116c3565b6115f8565b9050808382526020820190506020840283018581111561172a576117296116ef565b5b835b8181101561177157803567ffffffffffffffff81111561174f5761174e61158e565b5b80860161175c8982611695565b8552602085019450505060208101905061172c565b5050509392505050565b600082601f8301126117905761178f61158e565b5b81356117a08482602086016116f4565b91505092915050565b600080600080600060a086880312156117c5576117c461127b565b5b600086013567ffffffffffffffff8111156117e3576117e2611280565b5b6117ef88828901611695565b955050602086013567ffffffffffffffff8111156118105761180f611280565b5b61181c88828901611695565b945050604086013567ffffffffffffffff81111561183d5761183c611280565b5b61184988828901611695565b935050606086013567ffffffffffffffff81111561186a57611869611280565b5b61187688828901611695565b925050608086013567ffffffffffffffff81111561189757611896611280565b5b6118a38882890161177b565b9150509295509295909350565b6118b981611398565b82525050565b60006020820190506118d460008301846118b0565b92915050565b600080600080608085870312156118f4576118f361127b565b5b6000611902878288016112a6565b945050602085013567ffffffffffffffff81111561192357611922611280565b5b61192f87828801611695565b935050604085013567ffffffffffffffff8111156119505761194f611280565b5b61195c87828801611695565b925050606085013567ffffffffffffffff81111561197d5761197c611280565b5b61198987828801611695565b91505092959194509250565b600080604083850312156119ac576119ab61127b565b5b60006119ba858286016112a6565b925050602083013567ffffffffffffffff8111156119db576119da611280565b5b6119e78582860161177b565b9150509250929050565b6119fa81611398565b8114611a0557600080fd5b50565b600081359050611a17816119f1565b92915050565b600060208284031215611a3357611a3261127b565b5b6000611a4184828501611a08565b91505092915050565b600082825260208201905092915050565b6000611a66826112e8565b611a708185611a4a565b9350611a80818560208601611304565b611a898161132e565b840191505092915050565b600060c0820190508181036000830152611aae8189611a5b565b9050611abd60208301886118b0565b8181036040830152611acf8187611a5b565b90508181036060830152611ae38186611a5b565b90508181036080830152611af78185611a5b565b9050611b0660a0830184611564565b979650505050505050565b7f496e76616c69642066696c652049440000000000000000000000000000000000600082015250565b6000611b47600f83611a4a565b9150611b5282611b11565b602082019050919050565b60006020820190508181036000830152611b7681611b3a565b9050919050565b7f4e487b7100000000000000000000000000000000000000000000000000000000600052602260045260246000fd5b60006002820490506001821680611bc457607f821691505b602082108103611bd757611bd6611b7d565b5b50919050565b7f4349442063616e6e6f7420626520656d70747900000000000000000000000000600082015250565b6000611c13601383611a4a565b9150611c1e82611bdd565b602082019050919050565b60006020820190508181036000830152611c4281611c06565b9050919050565b7f46696c65206e616d652063616e6e6f7420626520656d70747900000000000000600082015250565b6000611c7f601983611a4a565b9150611c8a82611c49565b602082019050919050565b60006020820190508181036000830152611cae81611c72565b9050919050565b7f4e487b7100000000000000000000000000000000000000000000000000000000600052601160045260246000fd5b6000611cef82611285565b91507fffffffffffffffffffffffffffffffffffffffffffffffffffffffffffffffff8203611d2157611d20611cb5565b5b600182019050919050565b60008190508160005260206000209050919050565b60006020601f8301049050919050565b600082821b905092915050565b600060088302611d8e7fffffffffffffffffffffffffffffffffffffffffffffffffffffffffffffffff82611d51565b611d988683611d51565b95508019841693508086168417925050509392505050565b6000819050919050565b6000611dd5611dd0611dcb84611285565b611db0565b611285565b9050919050565b6000819050919050565b611def83611dba565b611e03611dfb82611ddc565b848454611d5e565b825550505050565b600090565b611e18611e0b565b611e23818484611de6565b505050565b5b81811015611e4757611e3c600082611e10565b600181019050611e29565b5050565b601f821115611e8c57611e5d81611d2c565b611e6684611d41565b81016020851015611e75578190505b611e89611e8185611d41565b830182611e28565b50505b505050565b600082821c905092915050565b6000611eaf60001984600802611e91565b1980831691505092915050565b6000611ec88383611e9e565b9150826002028217905092915050565b611ee1826112e8565b67ffffffffffffffff811115611efa57611ef9611598565b5b611f048254611bac565b611f0f828285611e4b565b600060209050601f831160018114611f425760008415611f30578287015190505b611f3a8582611ebc565b865550611fa2565b601f198416611f5086611d2c565b60005b82811015611f7857848901518255600182019150602085019450602081019050611f53565b86831015611f955784890151611f91601f891682611e9e565b8355505b6001600288020188555050505b505050505050565b600082825260208201905092915050565b6000611fc6826113b9565b611fd08185611faa565b935083602082028501611fe2856113d5565b8060005b8581101561201e5784840389528151611fff85826113e5565b945061200a836113f9565b925060208a01995050600181019050611fe6565b50829750879550505050505092915050565b600060a082019050818103600083015261204a8188611a5b565b905061205960208301876118b0565b818103604083015261206b8186611a5b565b9050818103606083015261207f8185611a5b565b905081810360808301526120938184611fbb565b90509695505050505050565b7f4f6e6c79207468652075706c6f616465722063616e207570646174652066696c60008201527f65206d6574616461746100000000000000000000000000000000000000000000602082015250565b60006120fb602a83611a4a565b91506121068261209f565b604082019050919050565b6000602082019050818103600083015261212a816120ee565b9050919050565b7f4f6e6c79207468652075706c6f616465722063616e207570646174652074616760008201527f7300000000000000000000000000000000000000000000000000000000000000602082015250565b600061218d602183611a4a565b915061219882612131565b604082019050919050565b600060208201905081810360008301526121bc81612180565b9050919050565b600060208201905081810360008301526121dd8184611fbb565b905092915050565b7f4f6e6c79207468652075706c6f61646572206f7220636f6e7472616374206f7760008201527f6e65722063616e2064656c657465207468652066696c65000000000000000000602082015250565b6000612241603783611a4a565b915061224c826121e5565b604082019050919050565b6000602082019050818103600083015261227081612234565b905091905056fea264697066735822122058e88fdf39cc4afd705c8ead90cb7e1e8ce9543bf8a86dca9cb116c4e562215b64736f6c634300081b0033",
  "linkReferences": {},
  "deployedLinkReferences": {}
}